:10000000020258756A01E56AD394004012756902CC
:10001000E569D394004004156980F5156A80E722EC
:0100200032AD
:100023000200208F348D358B368A37893875390035
:10003300753A00753B00AB36AA37A938AF3B8F82C0
:100043007583001202FDFFEF70030200FDAB36AAB9
:1000530037A938AF3B8F827583001202FDFFEF246F
:10006300E0F539E534D3947840057534000535ADB2
:1000730035AF341205B2753A00E53AC39408502EF1
:10008300AF3AAE3975F010EEA4F58285F083E582C0
:100093002FF582E43583F583E5822418F582E58321
:1000A300340AF583E493FF1205F6053A80CBE53570
:1000B30004FDAF341205B2753A00E53AC394085013
:1000C3002EAF3AAE3975F010EEA4F58285F083E5D4
:1000D300822FF582E43583F583E5822420F582E5DA
:1000E30083340AF583E493FF1205F6053A80CB7453
:1000F300082534F534053B02003922756F007BFF78
:100103007A1479087D007F00120026756F00E56F71
:10011300C394085020AF6F74002FF582E43400F5C8
:1001230083E0FFAE6F74142EF582E43400F583EFA1
:10013300F0056F80D990001CE4F07B017A007914FC
:100143007D007F301200267BFF7A14790812058721
:100153007B017A0079141205877BFF7A14790F7D6E
:10016300027F00120026756F00E56FC394085020CC
:10017300AF6F740A2FF582E43400F583E0FFAE6FAE
:1001830074142EF582E43400F583EFF0056F80D903
:1001930090001CE4F07B017A0079147D027F301219
:1001A30000267BFF7A14790F1205877B017A007989
:1001B30014120587227FF47E011204897FAE120692
:1001C3000E7F0012060E7F1012060E7F4012060EDF
:1001D3007F8112060E7FCF12060E7FA112060E7FBD
:1001E300C812060E7FA612060E7FA812060E7F3FC8
:1001F30012060E7FD312060E7F0012060E7FD51253
:10020300060E7F8012060E7FD912060E7FF11206AC
:100213000E7FDA12060E7F1212060E7FDB12060E17
:100223007F4012060E7F2012060E7F0212060E7FFB
:100233008D12060E7F1412060E7FA412060E7FA6E1
:1002430012060E7FAF12060E7F001204C47D007FDC
:10025300001205B222787FE4F6D8FD75817302029D
:100263009F020653E493A3F8E493A34003F68001AB
:10027300F208DFF48029E493A3F85407240CC8C3DD
:1002830033C4540F4420C8834004F456800146F617
:10029300DFE4800B010204081020408090040DE489
:1002A3007E019360BCA3FF543F30E509541FFEE475
:1002B30093A360010ECF54C025E060A840B8E49337
:1002C300A3FAE493A3F8E493A3C8C582C8CAC58379
:1002D300CAF0A3C8C582C8CAC583CADFE9DEE780FE
:1002E300BEBB010689828A83E0225002E722BBFE5D
:1002F30002E32289828A83E49322BB010CE58229EB
:10030300F582E5833AF583E0225006E92582F8E693
:1003130022BBFE06E92582F8E222E58229F582E581
:10032300833AF583E49322F8BB010DE58229F58234
:10033300E5833AF583E8F0225006E92582C8F622E0
:10034300BBFE05E92582C8F2228B548A5589568D56
:10035300571206657FA01203B0AF571203B01206FF
:10036300657FA11203B0755900E55814FFE559C321
:100373009F501D12044DAB54AA55A956AE598E82F7
:10038300758300EF12032AC200120626055980D98D
:1003930012044DAB54AA55A956AE598E82758300EB
:1003A300EF12032AD200120626120686228F6075E8
:1003B3006100756200756100E561C394085025E52D
:1003C30060C41313135401FFEF24FF9292E56025D9
:1003D300E0F560120003D293120003C293120003EC
:1003E300056180D4D292120003D29312000330929B
:1003F300110562E562D394C840F41200037F002222
:1004030080ECC2931200037F01224A001400000013
:10041300000000000000000A0800000000000000C7
:100423000000000A12000000000000000000004A63
:100433000000313233343500000000004A000A0066
:1004430000000000000000000000756B00756C00E8
:10045300D292120003756B00E56BC394085024C25B
:1004630093120003D293120003E56C25E0F56CA20E
:1004730092E433FFEF426C120003C29312000305B0
:100483006B80D5AF6C228E428F43854244854345B2
:10049300D3E5459400E5449400402575460075472F
:1004A3006ED3E5479400E5469400400AE5471547B7
:1004B3007002154680EBE54515457002154480D062
:1004C300228F5A755B00E55BC394085029E55B24D2
:1004D300B0FF12060E7F0112060E7F1012060E7574
:1004E3005C00E55CC394805009AF5A1205F6055CC5
:1004F30080F0055B80D0228E3C8F3D753E00753FBA
:1005030000C3E53F953DE53E953C501F0075400215
:100513007541BE1541AF41EF70F91540AF40EF7023
:10052300F2053FE53F7002053E80D6228F63756476
:1005330000E564C394085019E56330E704D2908062
:1005430002C290D291C291E56325E0F56305648010
:10055300E0D290D291C29122757300757300E57356
:10056300C39408501EAF7374002FF582E43400F572
:1005730083E0FDAF731205DC7F037E001204FA05EE
:100583007380DB228B5D8A5E895FAB5DAA5EA95FA8
:100593001202E4FFEF6017AB5D055FE55FAA5E70D3
:1005A30002055E14F91202E4FF12069380DC228F27
:1005B300658D66E56624B0FF12060EE56554F0FF0F
:1005C300EFC4540FFFEF4410FF12060EE565540FFE
:1005D300FFEF4401FF12060E228F6D8D6E1206652A
:1005E3007FA01203B0AF6D1203B0AF6E1203B0124F
:1005F3000686228F7012069E7F7812052F7F401287
:10060300052FAF7012052F1206A7228F7112069EB7
:100613007F7812052F7F0012052FAF7112052F125D
:1006230006A722200004C2928002D292120003D2B3
:1006330093120003C2931200032275892075870069
:10064300759850758DFD758BFDD28ED2ACD2AF22CD
:100653001201B812063D12055B1206771200FE80E6
:10066300F522D292D293120003C292120003C293D4
:10067300120003227B017A00790A7558077D001264
:10068300034C22C292D293120003D292120003228D
:100693008F728572993099FDC29922D291D290C2FC
:1006A30090C29122C291C290D291D29022000000B6
:1006B3000000000000000000000000000000000037
:1006C30000000000000000000000000000808080A7
:1006D3008080808080808080808080800000000017
:1006E30000000000000000000000000000000008FF
:1006F3000808080808080808080800000010101077
:10070300101010101010101010101010000004849E
:10071300848484848484848484840400002020204A
:100723002020202020202020202020200000FC0446
:100733000404FC040404FC040404FC0000007F28FB
:10074300242320202020212222227F000000024295
:100753004242C27E42424242C20202000040404044
:1007630040784740404040407F40404000202020A8
:1007730020202021222C2020202020200000402087
:10078300100C0300000001020418600000000000C8
:10079300FE82828282828282FE00000000000000CC
:1007A300FF40404040404040FF0000000000000088
:1007B300BE2A2A2AEA2A2A2A3E00000000004442CE
:1007C300494949497F49494949414000000004FFDB
:1007D300242424FF0400FE222222FE000088482F46
:1007E300090919AF48300F0242827F000000000060
:1007F3000000000000002F000000000700070000B9
:10080300147F147F1400242A7F2A120062640813C1
:100813002300364955225000000503000000001C48
:10082300224100000041221C000014083E0814006D
:1008330008083E0808000000A06000000808080837
:1008430008000060600000002010080402003E5110
:1008530049453E0000427F40000042615149460045
:100863002141454B31001814127F1000274545459F
:1008730039003C4A494930000171090503003649F2
:1008830049493600064949291E0000363600000052
:1008930000563600000008142241000014141414FA
:1008A30014000041221408000201510906003249D4
:1008B30059513E007C1211127C007F494949360090
:1008C3003E41414122007F4141221C007F49494969
:1008D30041007F09090901003E4149497A007F0827
:1008E30008087F0000417F4100002040413F010094
:1008F3007F08142241007F40404040007F020C02E9
:100903007F007F0408107F003E4141413E007F0984
:10091300090906003E4151215E007F09192946005D
:1009230046494949310001017F0101003F404040F0
:100933003F001F2040201F003F4038403F0063140A
:100943000814630007087008070061514945430014
:10095300007F41410000552A552A55000041417F3F
:100963000000040201020400404040404000000136
:10097300020400002054545478007F484444380053
:10098300384444442000384444487F003854545485
:100993001800087E0901020018A4A4A47C007F08A3
:1009A3000404780000447D4000004080847D000002
:1009B3007F102844000000417F4000007C0418049D
:1009C30078007C0804047800384444443800FC244C
:1009D3002424180018242418FC007C0804040800AC
:1009E300485454542000043F444020003C404020DD
:1009F3007C001C2040201C003C4030403C0044282C
:100A0300102844001CA0A0A07C004464544C44144F
:100A1300141414141400000000000000000000006F
:100A23000000000000000000F800000000000000CB
:100A3300333000000000100C06100C06000000000C
:100A4300000000000040C07840C0784000043F042C
:100A5300043F040400007088FC08300000001820E4
:100A6300FF211E0000F008F000E018000000211C28
:100A7300031E211E0000F00888700000001E2123C1
:100A8300241927211010160E00000000000000009A
:100A93000000000000000000E01804020000000055
:100AA300071820400000020418E000000000402066
:100AB3001807000000404080F0804040000202011F
:100AC3000F01020200000000F0000000000101011C
:100AD3001F01010100000000000000000080B07051
:100AE3000000000000000000000000000000010101
:100AF300010101010100000000000000000030308E
:100B0300000000000000000000806018040060186E
:100B1300060100000000E010080810E000000F10BC
:100B23002020100F00001010F8000000000020200B
:100B33003F2020000000700808088870000030285B
:100B43002422213000003008888848300000182013
:100B53002020110E000000C02010F8000000070440
:100B630024243F240000F80888880808000019217D
:100B73002020110E0000E0108888180000000F11DB
:100B83002020110E0000380808C8380800000000B3
:100B93003F000000000070880808887000001C22D5
:100BA3002121221C0000E010080810E000000031A1
:100BB3002222110F00000000C0C00000000000004E
:100BC30030300000000000008000000000000080C2
:100BD30060000000000000804020100800000102B7
:100BE30004081020004040404040404000040404FA
:100BF30004040404000008102040800000002010BA
:100C03000804020100007048080808F00000000012
:100C13003036010000C030C828E810E0000718276C
:100C23002423140B000000C038E0000000203C2304
:100C3300020227382008F8888888700000203F20A7
:100C43002020110E00C030080808083800071820BB
:100C5300202010080008F808080810E000203F20B2
:100C63002020100F0008F88888E8081000203F2093
:100C7300202320180008F88888E8081000203F2067
:100C83000003000000C030080808380000071820DF
:100C930020221E020008F808000008F808203F215F
:100CA3000101213F20000808F80808000000202067
:100CB3003F2020000000000808F8080800C08080DA
:100CC300807F00000008F888C028180800203F2013
:100CD300012638200008F8080000000000203F200B
:100CE300202020300008F8F800F8F80800203F0022
:100CF3003F003F200008F830C00008F808203F20DC
:100D03000007183F00E01008080810E0000F10204B
:100D13002020100F0008F808080808F000203F21E1
:100D23000101010000E01008080810E0000F18247A
:100D33002438504F0008F8888888887000203F20A6
:100D430000030C30200070880808083800003820A1
:100D53002121221C00180808F808081800000020A8
:100D63003F2000000008F808000008F808001F20D2
:100D73002020201F000878880000C83808000007DA
:100D8300380E010000F80800F80008F800033C07DB
:100D930000073C0300081868808068180820302C7E
:100DA30003032C30200838C800C83808000000208E
:100DB3003F2000000010080808C838080020382623
:100DC3002120201800000000FE02020200000000A3
:100DD3007F40404000000C30C000000000000000D5
:100DE300010638C00000020202FE0000000040407D
:100DF300407F000000000004020202040000000023
:100E0300000000000000000000000000008080805F
:100E13008080808080000202040000000000000047
:100E23000000000000000080808080000000192482
:100E33002222223F2008F8008080000000003F119A
:100E43002020110E000000008080800000000E11A1
:100E53002020201100000000808088F800000E117F
:100E63002020103F200000808080800000001F228F
:100E73002222221300008080F08888881800202016
:100E83003F202000000000808080808000006B9461
:100E9300949493600008F8008080800000203F2134
:100EA3000000203F200080989800000000002020D0
:100EB3003F20200000000000809898000000C080C0
:100EC30080807F000008F8000080808000203F249D
:100ED300022D302000000808F80000000000202048
:100EE3003F202000008080808080808000203F2081
:100EF300003F20003F8080008080800000203F2151
:100F03000000203F200000808080800000001F2020
:100F13002020201F00808000808000000080FFA12F
:100F23002020110E000000008080808000000E1140
:100F33002020A0FF80808080008080800020203FD0
:100F43002120000100000080808080800000332485
:100F53002424241900008080E08080000000000029
:100F63001F202000008080000000808000001F20E0
:100F73002020103F20808080000080808000010EB0
:100F8300300806010080800080008080800F300CD4
:100F9300030C300F0000808000808080000020312F
:100FA3002E0E312000808080000080808080818E22
:100FB300701806010000808080808080000021304E
:100FC3002C2221300000000000807C02020000007F
:100FD30000003F404000000000FF00000000000050
:100FE30000FF0000000002027C800000000040407F
:100FF3003F0000000000060101020204040000009B
:1010030000000000000003050911FF118905C3005A
:10101300E000F000F8000000000000004428FF1189
:10102300AA440000000000000000000000000000CF
:1010330000000000000000000000000000000000AD
:10104300000000000000000000000000000000009D
:10105300000000000000000000000000000000830A
:101063000138448292927401830000000000000062
:101073007C44C7017D7D7D7D017D7D7D7D017D7D01
:101083007D7D01FF00000000000001000100010060
:101093000100010001000000000000000000010148
:1010A300000000000000000000000000000000003D
:1010B300000000000000000000000000000000002D
:1010C300000000000000000000000000000000001D
:1010D300000000000000000000000000000000010C
:1010E30001000000000000010100000000000000FA
:1010F30000000101010101010101010101010101DF
:101103000101010100000000000000000000404058
:1011130040404000006D6D6D6D6D0000606060606B
:10112300600000404040404000000000000000001C
:1011330000000000000000000000000000000000AC
:10114300000000000000000000000000000000009C
:10115300000000000000000000000000000000008C
:10116300000000000000000000000000000000007C
:10117300000000000000000000000000000000006C
:101183000000000000000000000000000000DBDBA6
:10119300DBDBDB0000DBDBDBDBDB0000DBDBDBDB08
:1011A300DB0000DBDBDBDBDB0000DADADADADA00D8
:1011B30000D8D8D8D8D80000C0C0C0C0C00000C074
:1011C300C0C0C0C00000C0C0C0C0C00000C0C0C01C
:1011D300C0C000008080808080000000000000000C
:1011E30000000000000000000000000000000000FC
:1011F30000000000000000000000000000000000EC
:1012030000000000000000000000000000000606CF
:101213000606060000060606060600000606060683
:1012230006000006060606060000060606E6662019
:101233000006068606060000060606068600000669
:1012430006060606000086868686868080868606D3
:101253008686C0C08686860606D0307606060606D3
:10126300000006060606060000060606060600003F
:10127300060606060600000606060606000000002F
:10128300000000000000000000000000000000005B
:10129300000000000000000000000000000000004B
:1012A30000000000000000000000000000000060DB
:1012B3001C00FE00010200C41820029E63B20E004F
:1012C300FF8181FF00008040300F00000000FF001D
:1012D30023EAAABFAAEA033F00FF000000000000C0
:1012E30000000000000000000000000000000000FB
:1012F30000000000000000000000000000000000EB
:10130300000000000000000080808000000000005A
:10131300808080000000000000000000000000004A
:10132300000000000000000000000000000E0C0898
:1013330000000101010101000000010000000100A3
:101343008180808180818080808001010101000093
:10135300000100000001000101090C0E0000000063
:1013630000000000000000000000000000C0C0C03A
:10137300C0C0C0C0C0C0C0C0C0C0C0C0C0C0C0C06A
:10138300C0C0C0C000001E21404050215E001E218D
:10139300404050215E0000000000000000000000FB
:1013A300000000000000000000000000000000003A
:1013B300000000000000000000000000000000002A
:1013C300FFFFC1C1FFFFC1C1FFFF0000000000001C
:1013D300000000000000000000000000000000000A
:1013E30000000000000000000000000000FFFF807C
:1013F300FCF3EFF3FC80FF80EEEEEEF5FBFF9CBE0B
:10140300B6B688FF0077726974653A005265616405
:021413003A009D
:00000001FF
